{
  "contracts/Arbitrage.sol": {
    "Arbitrage": {
      "abi": [
        {
          "inputs": [],
          "stateMutability": "nonpayable",
          "type": "constructor"
        },
        {
          "inputs": [
            {
              "internalType": "address[]",
              "name": "_routerPath",
              "type": "address[]"
            },
            {
              "internalType": "address[]",
              "name": "_tokenPath",
              "type": "address[]"
            },
            {
              "internalType": "uint24",
              "name": "_fee",
              "type": "uint24"
            },
            {
              "internalType": "uint256",
              "name": "_flashAmount",
              "type": "uint256"
            }
          ],
          "name": "executeTrade",
          "outputs": [],
          "stateMutability": "nonpayable",
          "type": "function"
        },
        {
          "inputs": [],
          "name": "owner",
          "outputs": [
            {
              "internalType": "address",
              "name": "",
              "type": "address"
            }
          ],
          "stateMutability": "view",
          "type": "function"
        },
        {
          "inputs": [
            {
              "internalType": "contract IERC20[]",
              "name": "tokens",
              "type": "address[]"
            },
            {
              "internalType": "uint256[]",
              "name": "amounts",
              "type": "uint256[]"
            },
            {
              "internalType": "uint256[]",
              "name": "feeAmounts",
              "type": "uint256[]"
            },
            {
              "internalType": "bytes",
              "name": "userData",
              "type": "bytes"
            }
          ],
          "name": "receiveFlashLoan",
          "outputs": [],
          "stateMutability": "nonpayable",
          "type": "function"
        }
      ],
      "evm": {
        "bytecode": {
          "linkReferences": {},
          "object": "6080604052348015600f57600080fd5b50336000806101000a81548173ffffffffffffffffffffffffffffffffffffffff021916908373ffffffffffffffffffffffffffffffffffffffff1602179055506116868061005f6000396000f3fe608060405234801561001057600080fd5b50600436106100415760003560e01c80638da5cb5b14610046578063b4b9c57b14610064578063f04f270714610080575b600080fd5b61004e61009c565b60405161005b91906108a5565b60405180910390f35b61007e60048036038101906100799190610aca565b6100c0565b005b61009a60048036038101906100959190610de2565b6102b8565b005b60008054906101000a900473ffffffffffffffffffffffffffffffffffffffff1681565b600060405180606001604052808681526020018581526020018462ffffff168152506040516020016100f29190610fdd565b60405160208183030381529060405290506000600167ffffffffffffffff8111156101205761011f6108ea565b5b60405190808252806020026020018201604052801561014e5781602001602082028036833780820191505090505b5090508460008151811061016557610164610fff565b5b60200260200101518160008151811061018157610180610fff565b5b602002602001019073ffffffffffffffffffffffffffffffffffffffff16908173ffffffffffffffffffffffffffffffffffffffff16815250506000600167ffffffffffffffff8111156101d8576101d76108ea565b5b6040519080825280602002602001820160405280156102065781602001602082028036833780820191505090505b509050838160008151811061021e5761021d610fff565b5b60200260200101818152505073ba12222222228d8ba445958a75a0704d566bf2c873ffffffffffffffffffffffffffffffffffffffff16635c38449e308484876040518563ffffffff1660e01b815260040161027d949392919061129a565b600060405180830381600087803b15801561029757600080fd5b505af11580156102ab573d6000803e3d6000fd5b5050505050505050505050565b73ba12222222228d8ba445958a75a0704d566bf2c873ffffffffffffffffffffffffffffffffffffffff163373ffffffffffffffffffffffffffffffffffffffff161461030457600080fd5b60008180602001905181019061031a919061145b565b905060008460008151811061033257610331610fff565b5b602002602001015190506103ac826000015160008151811061035757610356610fff565b5b6020026020010151836020015160008151811061037757610376610fff565b5b602002602001015183856020015160018151811061039857610397610fff565b5b6020026020010151600087604001516106c3565b6104b382600001516001815181106103c7576103c6610fff565b5b602002602001015183602001516001815181106103e7576103e6610fff565b5b6020026020010151846020015160018151811061040757610406610fff565b5b602002602001015173ffffffffffffffffffffffffffffffffffffffff166370a08231306040518263ffffffff1660e01b815260040161044791906108a5565b602060405180830381865afa158015610464573d6000803e3d6000fd5b505050506040513d601f19601f8201168201806040525081019061048891906114b9565b85602001516000815181106104a05761049f610fff565b5b60200260200101518587604001516106c3565b81602001516000815181106104cb576104ca610fff565b5b602002602001015173ffffffffffffffffffffffffffffffffffffffff1663a9059cbb73ba12222222228d8ba445958a75a0704d566bf2c8836040518363ffffffff1660e01b81526004016105219291906114f5565b6020604051808303816000875af1158015610540573d6000803e3d6000fd5b505050506040513d601f19601f820116820180604052508101906105649190611556565b50816020015160008151811061057d5761057c610fff565b5b602002602001015173ffffffffffffffffffffffffffffffffffffffff1663a9059cbb60008054906101000a900473ffffffffffffffffffffffffffffffffffffffff1684602001516000815181106105d9576105d8610fff565b5b602002602001015173ffffffffffffffffffffffffffffffffffffffff166370a08231306040518263ffffffff1660e01b815260040161061991906108a5565b602060405180830381865afa158015610636573d6000803e3d6000fd5b505050506040513d601f19601f8201168201806040525081019061065a91906114b9565b6040518363ffffffff1660e01b81526004016106779291906114f5565b6020604051808303816000875af1158015610696573d6000803e3d6000fd5b505050506040513d601f19601f820116820180604052508101906106ba9190611556565b50505050505050565b8473ffffffffffffffffffffffffffffffffffffffff1663095ea7b387866040518363ffffffff1660e01b81526004016106fe9291906114f5565b6020604051808303816000875af115801561071d573d6000803e3d6000fd5b505050506040513d601f19601f820116820180604052508101906107419190611556565b5060006040518061010001604052808773ffffffffffffffffffffffffffffffffffffffff1681526020018573ffffffffffffffffffffffffffffffffffffffff1681526020018362ffffff1681526020013073ffffffffffffffffffffffffffffffffffffffff168152602001428152602001868152602001848152602001600073ffffffffffffffffffffffffffffffffffffffff1681525090508673ffffffffffffffffffffffffffffffffffffffff1663414bf389826040518263ffffffff1660e01b81526004016108179190611634565b6020604051808303816000875af1158015610836573d6000803e3d6000fd5b505050506040513d601f19601f8201168201806040525081019061085a91906114b9565b5050505050505050565b600073ffffffffffffffffffffffffffffffffffffffff82169050919050565b600061088f82610864565b9050919050565b61089f81610884565b82525050565b60006020820190506108ba6000830184610896565b92915050565b6000604051905090565b600080fd5b600080fd5b600080fd5b6000601f19601f8301169050919050565b7f4e487b7100000000000000000000000000000000000000000000000000000000600052604160045260246000fd5b610922826108d9565b810181811067ffffffffffffffff82111715610941576109406108ea565b5b80604052505050565b60006109546108c0565b90506109608282610919565b919050565b600067ffffffffffffffff8211156109805761097f6108ea565b5b602082029050602081019050919050565b600080fd5b61099f81610884565b81146109aa57600080fd5b50565b6000813590506109bc81610996565b92915050565b60006109d56109d084610965565b61094a565b905080838252602082019050602084028301858111156109f8576109f7610991565b5b835b81811015610a215780610a0d88826109ad565b8452602084019350506020810190506109fa565b5050509392505050565b600082601f830112610a4057610a3f6108d4565b5b8135610a508482602086016109c2565b91505092915050565b600062ffffff82169050919050565b610a7181610a59565b8114610a7c57600080fd5b50565b600081359050610a8e81610a68565b92915050565b6000819050919050565b610aa781610a94565b8114610ab257600080fd5b50565b600081359050610ac481610a9e565b92915050565b60008060008060808587031215610ae457610ae36108ca565b5b600085013567ffffffffffffffff811115610b0257610b016108cf565b5b610b0e87828801610a2b565b945050602085013567ffffffffffffffff811115610b2f57610b2e6108cf565b5b610b3b87828801610a2b565b9350506040610b4c87828801610a7f565b9250506060610b5d87828801610ab5565b91505092959194509250565b600067ffffffffffffffff821115610b8457610b836108ea565b5b602082029050602081019050919050565b6000610ba082610884565b9050919050565b610bb081610b95565b8114610bbb57600080fd5b50565b600081359050610bcd81610ba7565b92915050565b6000610be6610be184610b69565b61094a565b90508083825260208201905060208402830185811115610c0957610c08610991565b5b835b81811015610c325780610c1e8882610bbe565b845260208401935050602081019050610c0b565b5050509392505050565b600082601f830112610c5157610c506108d4565b5b8135610c61848260208601610bd3565b91505092915050565b600067ffffffffffffffff821115610c8557610c846108ea565b5b602082029050602081019050919050565b6000610ca9610ca484610c6a565b61094a565b90508083825260208201905060208402830185811115610ccc57610ccb610991565b5b835b81811015610cf55780610ce18882610ab5565b845260208401935050602081019050610cce565b5050509392505050565b600082601f830112610d1457610d136108d4565b5b8135610d24848260208601610c96565b91505092915050565b600080fd5b600067ffffffffffffffff821115610d4d57610d4c6108ea565b5b610d56826108d9565b9050602081019050919050565b82818337600083830152505050565b6000610d85610d8084610d32565b61094a565b905082815260208101848484011115610da157610da0610d2d565b5b610dac848285610d63565b509392505050565b600082601f830112610dc957610dc86108d4565b5b8135610dd9848260208601610d72565b91505092915050565b60008060008060808587031215610dfc57610dfb6108ca565b5b600085013567ffffffffffffffff811115610e1a57610e196108cf565b5b610e2687828801610c3c565b945050602085013567ffffffffffffffff811115610e4757610e466108cf565b5b610e5387828801610cff565b935050604085013567ffffffffffffffff811115610e7457610e736108cf565b5b610e8087828801610cff565b925050606085013567ffffffffffffffff811115610ea157610ea06108cf565b5b610ead87828801610db4565b91505092959194509250565b600081519050919050565b600082825260208201905092915050565b6000819050602082019050919050565b610eee81610884565b82525050565b6000610f008383610ee5565b60208301905092915050565b6000602082019050919050565b6000610f2482610eb9565b610f2e8185610ec4565b9350610f3983610ed5565b8060005b83811015610f6a578151610f518882610ef4565b9750610f5c83610f0c565b925050600181019050610f3d565b5085935050505092915050565b610f8081610a59565b82525050565b60006060830160008301518482036000860152610fa38282610f19565b91505060208301518482036020860152610fbd8282610f19565b9150506040830151610fd26040860182610f77565b508091505092915050565b60006020820190508181036000830152610ff78184610f86565b905092915050565b7f4e487b7100000000000000000000000000000000000000000000000000000000600052603260045260246000fd5b6000819050919050565b600061105361104e61104984610864565b61102e565b610864565b9050919050565b600061106582611038565b9050919050565b60006110778261105a565b9050919050565b6110878161106c565b82525050565b600081519050919050565b600082825260208201905092915050565b6000819050602082019050919050565b60006110c48261105a565b9050919050565b6110d4816110b9565b82525050565b60006110e683836110cb565b60208301905092915050565b6000602082019050919050565b600061110a8261108d565b6111148185611098565b935061111f836110a9565b8060005b8381101561115057815161113788826110da565b9750611142836110f2565b925050600181019050611123565b5085935050505092915050565b600081519050919050565b600082825260208201905092915050565b6000819050602082019050919050565b61119281610a94565b82525050565b60006111a48383611189565b60208301905092915050565b6000602082019050919050565b60006111c88261115d565b6111d28185611168565b93506111dd83611179565b8060005b8381101561120e5781516111f58882611198565b9750611200836111b0565b9250506001810190506111e1565b5085935050505092915050565b600081519050919050565b600082825260208201905092915050565b60005b8381101561125557808201518184015260208101905061123a565b60008484015250505050565b600061126c8261121b565b6112768185611226565b9350611286818560208601611237565b61128f816108d9565b840191505092915050565b60006080820190506112af600083018761107e565b81810360208301526112c181866110ff565b905081810360408301526112d581856111bd565b905081810360608301526112e98184611261565b905095945050505050565b600080fd5b600080fd5b60008151905061130d81610996565b92915050565b600061132661132184610965565b61094a565b9050808382526020820190506020840283018581111561134957611348610991565b5b835b81811015611372578061135e88826112fe565b84526020840193505060208101905061134b565b5050509392505050565b600082601f830112611391576113906108d4565b5b81516113a1848260208601611313565b91505092915050565b6000815190506113b981610a68565b92915050565b6000606082840312156113d5576113d46112f4565b5b6113df606061094a565b9050600082015167ffffffffffffffff8111156113ff576113fe6112f9565b5b61140b8482850161137c565b600083015250602082015167ffffffffffffffff81111561142f5761142e6112f9565b5b61143b8482850161137c565b602083015250604061144f848285016113aa565b60408301525092915050565b600060208284031215611471576114706108ca565b5b600082015167ffffffffffffffff81111561148f5761148e6108cf565b5b61149b848285016113bf565b91505092915050565b6000815190506114b381610a9e565b92915050565b6000602082840312156114cf576114ce6108ca565b5b60006114dd848285016114a4565b91505092915050565b6114ef81610a94565b82525050565b600060408201905061150a6000830185610896565b61151760208301846114e6565b9392505050565b60008115159050919050565b6115338161151e565b811461153e57600080fd5b50565b6000815190506115508161152a565b92915050565b60006020828403121561156c5761156b6108ca565b5b600061157a84828501611541565b91505092915050565b61158c81610864565b82525050565b610100820160008201516115a96000850182610ee5565b5060208201516115bc6020850182610ee5565b5060408201516115cf6040850182610f77565b5060608201516115e26060850182610ee5565b5060808201516115f56080850182611189565b5060a082015161160860a0850182611189565b5060c082015161161b60c0850182611189565b5060e082015161162e60e0850182611583565b50505050565b60006101008201905061164a6000830184611592565b9291505056fea264697066735822122076f9cb985979d6a5248f6cc0d7d6030dc157d37d260a2ef7900dd9232243832564736f6c634300081c0033",
          "opcodes": "PUSH1 0x80 PUSH1 0x40 MSTORE CALLVALUE DUP1 ISZERO PUSH1 0xF JUMPI PUSH1 0x0 DUP1 REVERT JUMPDEST POP CALLER PUSH1 0x0 DUP1 PUSH2 0x100 EXP DUP2 SLOAD DUP2 PUSH20 0xFFFFFFFFFFFFFFFFFFFFFFFFFFFFFFFFFFFFFFFF MUL NOT AND SWAP1 DUP4 PUSH20 0xFFFFFFFFFFFFFFFFFFFFFFFFFFFFFFFFFFFFFFFF AND MUL OR SWAP1 SSTORE POP PUSH2 0x1686 DUP1 PUSH2 0x5F PUSH1 0x0 CODECOPY PUSH1 0x0 RETURN INVALID PUSH1 0x80 PUSH1 0x40 MSTORE CALLVALUE DUP1 ISZERO PUSH2 0x10 JUMPI PUSH1 0x0 DUP1 REVERT JUMPDEST POP PUSH1 0x4 CALLDATASIZE LT PUSH2 0x41 JUMPI PUSH1 0x0 CALLDATALOAD PUSH1 0xE0 SHR DUP1 PUSH4 0x8DA5CB5B EQ PUSH2 0x46 JUMPI DUP1 PUSH4 0xB4B9C57B EQ PUSH2 0x64 JUMPI DUP1 PUSH4 0xF04F2707 EQ PUSH2 0x80 JUMPI JUMPDEST PUSH1 0x0 DUP1 REVERT JUMPDEST PUSH2 0x4E PUSH2 0x9C JUMP JUMPDEST PUSH1 0x40 MLOAD PUSH2 0x5B SWAP2 SWAP1 PUSH2 0x8A5 JUMP JUMPDEST PUSH1 0x40 MLOAD DUP1 SWAP2 SUB SWAP1 RETURN JUMPDEST PUSH2 0x7E PUSH1 0x4 DUP1 CALLDATASIZE SUB DUP2 ADD SWAP1 PUSH2 0x79 SWAP2 SWAP1 PUSH2 0xACA JUMP JUMPDEST PUSH2 0xC0 JUMP JUMPDEST STOP JUMPDEST PUSH2 0x9A PUSH1 0x4 DUP1 CALLDATASIZE SUB DUP2 ADD SWAP1 PUSH2 0x95 SWAP2 SWAP1 PUSH2 0xDE2 JUMP JUMPDEST PUSH2 0x2B8 JUMP JUMPDEST STOP JUMPDEST PUSH1 0x0 DUP1 SLOAD SWAP1 PUSH2 0x100 EXP SWAP1 DIV PUSH20 0xFFFFFFFFFFFFFFFFFFFFFFFFFFFFFFFFFFFFFFFF AND DUP2 JUMP JUMPDEST PUSH1 0x0 PUSH1 0x40 MLOAD DUP1 PUSH1 0x60 ADD PUSH1 0x40 MSTORE DUP1 DUP7 DUP2 MSTORE PUSH1 0x20 ADD DUP6 DUP2 MSTORE PUSH1 0x20 ADD DUP5 PUSH3 0xFFFFFF AND DUP2 MSTORE POP PUSH1 0x40 MLOAD PUSH1 0x20 ADD PUSH2 0xF2 SWAP2 SWAP1 PUSH2 0xFDD JUMP JUMPDEST PUSH1 0x40 MLOAD PUSH1 0x20 DUP2 DUP4 SUB SUB DUP2 MSTORE SWAP1 PUSH1 0x40 MSTORE SWAP1 POP PUSH1 0x0 PUSH1 0x1 PUSH8 0xFFFFFFFFFFFFFFFF DUP2 GT ISZERO PUSH2 0x120 JUMPI PUSH2 0x11F PUSH2 0x8EA JUMP JUMPDEST JUMPDEST PUSH1 0x40 MLOAD SWAP1 DUP1 DUP3 MSTORE DUP1 PUSH1 0x20 MUL PUSH1 0x20 ADD DUP3 ADD PUSH1 0x40 MSTORE DUP1 ISZERO PUSH2 0x14E JUMPI DUP2 PUSH1 0x20 ADD PUSH1 0x20 DUP3 MUL DUP1 CALLDATASIZE DUP4 CALLDATACOPY DUP1 DUP3 ADD SWAP2 POP POP SWAP1 POP JUMPDEST POP SWAP1 POP DUP5 PUSH1 0x0 DUP2 MLOAD DUP2 LT PUSH2 0x165 JUMPI PUSH2 0x164 PUSH2 0xFFF JUMP JUMPDEST JUMPDEST PUSH1 0x20 MUL PUSH1 0x20 ADD ADD MLOAD DUP2 PUSH1 0x0 DUP2 MLOAD DUP2 LT PUSH2 0x181 JUMPI PUSH2 0x180 PUSH2 0xFFF JUMP JUMPDEST JUMPDEST PUSH1 0x20 MUL PUSH1 0x20 ADD ADD SWAP1 PUSH20 0xFFFFFFFFFFFFFFFFFFFFFFFFFFFFFFFFFFFFFFFF AND SWAP1 DUP2 PUSH20 0xFFFFFFFFFFFFFFFFFFFFFFFFFFFFFFFFFFFFFFFF AND DUP2 MSTORE POP POP PUSH1 0x0 PUSH1 0x1 PUSH8 0xFFFFFFFFFFFFFFFF DUP2 GT ISZERO PUSH2 0x1D8 JUMPI PUSH2 0x1D7 PUSH2 0x8EA JUMP JUMPDEST JUMPDEST PUSH1 0x40 MLOAD SWAP1 DUP1 DUP3 MSTORE DUP1 PUSH1 0x20 MUL PUSH1 0x20 ADD DUP3 ADD PUSH1 0x40 MSTORE DUP1 ISZERO PUSH2 0x206 JUMPI DUP2 PUSH1 0x20 ADD PUSH1 0x20 DUP3 MUL DUP1 CALLDATASIZE DUP4 CALLDATACOPY DUP1 DUP3 ADD SWAP2 POP POP SWAP1 POP JUMPDEST POP SWAP1 POP DUP4 DUP2 PUSH1 0x0 DUP2 MLOAD DUP2 LT PUSH2 0x21E JUMPI PUSH2 0x21D PUSH2 0xFFF JUMP JUMPDEST JUMPDEST PUSH1 0x20 MUL PUSH1 0x20 ADD ADD DUP2 DUP2 MSTORE POP POP PUSH20 0xBA12222222228D8BA445958A75A0704D566BF2C8 PUSH20 0xFFFFFFFFFFFFFFFFFFFFFFFFFFFFFFFFFFFFFFFF AND PUSH4 0x5C38449E ADDRESS DUP5 DUP5 DUP8 PUSH1 0x40 MLOAD DUP6 PUSH4 0xFFFFFFFF AND PUSH1 0xE0 SHL DUP2 MSTORE PUSH1 0x4 ADD PUSH2 0x27D SWAP5 SWAP4 SWAP3 SWAP2 SWAP1 PUSH2 0x129A JUMP JUMPDEST PUSH1 0x0 PUSH1 0x40 MLOAD DUP1 DUP4 SUB DUP2 PUSH1 0x0 DUP8 DUP1 EXTCODESIZE ISZERO DUP1 ISZERO PUSH2 0x297 JUMPI PUSH1 0x0 DUP1 REVERT JUMPDEST POP GAS CALL ISZERO DUP1 ISZERO PUSH2 0x2AB JUMPI RETURNDATASIZE PUSH1 0x0 DUP1 RETURNDATACOPY RETURNDATASIZE PUSH1 0x0 REVERT JUMPDEST POP POP POP POP POP POP POP POP POP POP POP JUMP JUMPDEST PUSH20 0xBA12222222228D8BA445958A75A0704D566BF2C8 PUSH20 0xFFFFFFFFFFFFFFFFFFFFFFFFFFFFFFFFFFFFFFFF AND CALLER PUSH20 0xFFFFFFFFFFFFFFFFFFFFFFFFFFFFFFFFFFFFFFFF AND EQ PUSH2 0x304 JUMPI PUSH1 0x0 DUP1 REVERT JUMPDEST PUSH1 0x0 DUP2 DUP1 PUSH1 0x20 ADD SWAP1 MLOAD DUP2 ADD SWAP1 PUSH2 0x31A SWAP2 SWAP1 PUSH2 0x145B JUMP JUMPDEST SWAP1 POP PUSH1 0x0 DUP5 PUSH1 0x0 DUP2 MLOAD DUP2 LT PUSH2 0x332 JUMPI PUSH2 0x331 PUSH2 0xFFF JUMP JUMPDEST JUMPDEST PUSH1 0x20 MUL PUSH1 0x20 ADD ADD MLOAD SWAP1 POP PUSH2 0x3AC DUP3 PUSH1 0x0 ADD MLOAD PUSH1 0x0 DUP2 MLOAD DUP2 LT PUSH2 0x357 JUMPI PUSH2 0x356 PUSH2 0xFFF JUMP JUMPDEST JUMPDEST PUSH1 0x20 MUL PUSH1 0x20 ADD ADD MLOAD DUP4 PUSH1 0x20 ADD MLOAD PUSH1 0x0 DUP2 MLOAD DUP2 LT PUSH2 0x377 JUMPI PUSH2 0x376 PUSH2 0xFFF JUMP JUMPDEST JUMPDEST PUSH1 0x20 MUL PUSH1 0x20 ADD ADD MLOAD DUP4 DUP6 PUSH1 0x20 ADD MLOAD PUSH1 0x1 DUP2 MLOAD DUP2 LT PUSH2 0x398 JUMPI PUSH2 0x397 PUSH2 0xFFF JUMP JUMPDEST JUMPDEST PUSH1 0x20 MUL PUSH1 0x20 ADD ADD MLOAD PUSH1 0x0 DUP8 PUSH1 0x40 ADD MLOAD PUSH2 0x6C3 JUMP JUMPDEST PUSH2 0x4B3 DUP3 PUSH1 0x0 ADD MLOAD PUSH1 0x1 DUP2 MLOAD DUP2 LT PUSH2 0x3C7 JUMPI PUSH2 0x3C6 PUSH2 0xFFF JUMP JUMPDEST JUMPDEST PUSH1 0x20 MUL PUSH1 0x20 ADD ADD MLOAD DUP4 PUSH1 0x20 ADD MLOAD PUSH1 0x1 DUP2 MLOAD DUP2 LT PUSH2 0x3E7 JUMPI PUSH2 0x3E6 PUSH2 0xFFF JUMP JUMPDEST JUMPDEST PUSH1 0x20 MUL PUSH1 0x20 ADD ADD MLOAD DUP5 PUSH1 0x20 ADD MLOAD PUSH1 0x1 DUP2 MLOAD DUP2 LT PUSH2 0x407 JUMPI PUSH2 0x406 PUSH2 0xFFF JUMP JUMPDEST JUMPDEST PUSH1 0x20 MUL PUSH1 0x20 ADD ADD MLOAD PUSH20 0xFFFFFFFFFFFFFFFFFFFFFFFFFFFFFFFFFFFFFFFF AND PUSH4 0x70A08231 ADDRESS PUSH1 0x40 MLOAD DUP3 PUSH4 0xFFFFFFFF AND PUSH1 0xE0 SHL DUP2 MSTORE PUSH1 0x4 ADD PUSH2 0x447 SWAP2 SWAP1 PUSH2 0x8A5 JUMP JUMPDEST PUSH1 0x20 PUSH1 0x40 MLOAD DUP1 DUP4 SUB DUP2 DUP7 GAS STATICCALL ISZERO DUP1 ISZERO PUSH2 0x464 JUMPI RETURNDATASIZE PUSH1 0x0 DUP1 RETURNDATACOPY RETURNDATASIZE PUSH1 0x0 REVERT JUMPDEST POP POP POP POP PUSH1 0x40 MLOAD RETURNDATASIZE PUSH1 0x1F NOT PUSH1 0x1F DUP3 ADD AND DUP3 ADD DUP1 PUSH1 0x40 MSTORE POP DUP2 ADD SWAP1 PUSH2 0x488 SWAP2 SWAP1 PUSH2 0x14B9 JUMP JUMPDEST DUP6 PUSH1 0x20 ADD MLOAD PUSH1 0x0 DUP2 MLOAD DUP2 LT PUSH2 0x4A0 JUMPI PUSH2 0x49F PUSH2 0xFFF JUMP JUMPDEST JUMPDEST PUSH1 0x20 MUL PUSH1 0x20 ADD ADD MLOAD DUP6 DUP8 PUSH1 0x40 ADD MLOAD PUSH2 0x6C3 JUMP JUMPDEST DUP2 PUSH1 0x20 ADD MLOAD PUSH1 0x0 DUP2 MLOAD DUP2 LT PUSH2 0x4CB JUMPI PUSH2 0x4CA PUSH2 0xFFF JUMP JUMPDEST JUMPDEST PUSH1 0x20 MUL PUSH1 0x20 ADD ADD MLOAD PUSH20 0xFFFFFFFFFFFFFFFFFFFFFFFFFFFFFFFFFFFFFFFF AND PUSH4 0xA9059CBB PUSH20 0xBA12222222228D8BA445958A75A0704D566BF2C8 DUP4 PUSH1 0x40 MLOAD DUP4 PUSH4 0xFFFFFFFF AND PUSH1 0xE0 SHL DUP2 MSTORE PUSH1 0x4 ADD PUSH2 0x521 SWAP3 SWAP2 SWAP1 PUSH2 0x14F5 JUMP JUMPDEST PUSH1 0x20 PUSH1 0x40 MLOAD DUP1 DUP4 SUB DUP2 PUSH1 0x0 DUP8 GAS CALL ISZERO DUP1 ISZERO PUSH2 0x540 JUMPI RETURNDATASIZE PUSH1 0x0 DUP1 RETURNDATACOPY RETURNDATASIZE PUSH1 0x0 REVERT JUMPDEST POP POP POP POP PUSH1 0x40 MLOAD RETURNDATASIZE PUSH1 0x1F NOT PUSH1 0x1F DUP3 ADD AND DUP3 ADD DUP1 PUSH1 0x40 MSTORE POP DUP2 ADD SWAP1 PUSH2 0x564 SWAP2 SWAP1 PUSH2 0x1556 JUMP JUMPDEST POP DUP2 PUSH1 0x20 ADD MLOAD PUSH1 0x0 DUP2 MLOAD DUP2 LT PUSH2 0x57D JUMPI PUSH2 0x57C PUSH2 0xFFF JUMP JUMPDEST JUMPDEST PUSH1 0x20 MUL PUSH1 0x20 ADD ADD MLOAD PUSH20 0xFFFFFFFFFFFFFFFFFFFFFFFFFFFFFFFFFFFFFFFF AND PUSH4 0xA9059CBB PUSH1 0x0 DUP1 SLOAD SWAP1 PUSH2 0x100 EXP SWAP1 DIV PUSH20 0xFFFFFFFFFFFFFFFFFFFFFFFFFFFFFFFFFFFFFFFF AND DUP5 PUSH1 0x20 ADD MLOAD PUSH1 0x0 DUP2 MLOAD DUP2 LT PUSH2 0x5D9 JUMPI PUSH2 0x5D8 PUSH2 0xFFF JUMP JUMPDEST JUMPDEST PUSH1 0x20 MUL PUSH1 0x20 ADD ADD MLOAD PUSH20 0xFFFFFFFFFFFFFFFFFFFFFFFFFFFFFFFFFFFFFFFF AND PUSH4 0x70A08231 ADDRESS PUSH1 0x40 MLOAD DUP3 PUSH4 0xFFFFFFFF AND PUSH1 0xE0 SHL DUP2 MSTORE PUSH1 0x4 ADD PUSH2 0x619 SWAP2 SWAP1 PUSH2 0x8A5 JUMP JUMPDEST PUSH1 0x20 PUSH1 0x40 MLOAD DUP1 DUP4 SUB DUP2 DUP7 GAS STATICCALL ISZERO DUP1 ISZERO PUSH2 0x636 JUMPI RETURNDATASIZE PUSH1 0x0 DUP1 RETURNDATACOPY RETURNDATASIZE PUSH1 0x0 REVERT JUMPDEST POP POP POP POP PUSH1 0x40 MLOAD RETURNDATASIZE PUSH1 0x1F NOT PUSH1 0x1F DUP3 ADD AND DUP3 ADD DUP1 PUSH1 0x40 MSTORE POP DUP2 ADD SWAP1 PUSH2 0x65A SWAP2 SWAP1 PUSH2 0x14B9 JUMP JUMPDEST PUSH1 0x40 MLOAD DUP4 PUSH4 0xFFFFFFFF AND PUSH1 0xE0 SHL DUP2 MSTORE PUSH1 0x4 ADD PUSH2 0x677 SWAP3 SWAP2 SWAP1 PUSH2 0x14F5 JUMP JUMPDEST PUSH1 0x20 PUSH1 0x40 MLOAD DUP1 DUP4 SUB DUP2 PUSH1 0x0 DUP8 GAS CALL ISZERO DUP1 ISZERO PUSH2 0x696 JUMPI RETURNDATASIZE PUSH1 0x0 DUP1 RETURNDATACOPY RETURNDATASIZE PUSH1 0x0 REVERT JUMPDEST POP POP POP POP PUSH1 0x40 MLOAD RETURNDATASIZE PUSH1 0x1F NOT PUSH1 0x1F DUP3 ADD AND DUP3 ADD DUP1 PUSH1 0x40 MSTORE POP DUP2 ADD SWAP1 PUSH2 0x6BA SWAP2 SWAP1 PUSH2 0x1556 JUMP JUMPDEST POP POP POP POP POP POP POP JUMP JUMPDEST DUP5 PUSH20 0xFFFFFFFFFFFFFFFFFFFFFFFFFFFFFFFFFFFFFFFF AND PUSH4 0x95EA7B3 DUP8 DUP7 PUSH1 0x40 MLOAD DUP4 PUSH4 0xFFFFFFFF AND PUSH1 0xE0 SHL DUP2 MSTORE PUSH1 0x4 ADD PUSH2 0x6FE SWAP3 SWAP2 SWAP1 PUSH2 0x14F5 JUMP JUMPDEST PUSH1 0x20 PUSH1 0x40 MLOAD DUP1 DUP4 SUB DUP2 PUSH1 0x0 DUP8 GAS CALL ISZERO DUP1 ISZERO PUSH2 0x71D JUMPI RETURNDATASIZE PUSH1 0x0 DUP1 RETURNDATACOPY RETURNDATASIZE PUSH1 0x0 REVERT JUMPDEST POP POP POP POP PUSH1 0x40 MLOAD RETURNDATASIZE PUSH1 0x1F NOT PUSH1 0x1F DUP3 ADD AND DUP3 ADD DUP1 PUSH1 0x40 MSTORE POP DUP2 ADD SWAP1 PUSH2 0x741 SWAP2 SWAP1 PUSH2 0x1556 JUMP JUMPDEST POP PUSH1 0x0 PUSH1 0x40 MLOAD DUP1 PUSH2 0x100 ADD PUSH1 0x40 MSTORE DUP1 DUP8 PUSH20 0xFFFFFFFFFFFFFFFFFFFFFFFFFFFFFFFFFFFFFFFF AND DUP2 MSTORE PUSH1 0x20 ADD DUP6 PUSH20 0xFFFFFFFFFFFFFFFFFFFFFFFFFFFFFFFFFFFFFFFF AND DUP2 MSTORE PUSH1 0x20 ADD DUP4 PUSH3 0xFFFFFF AND DUP2 MSTORE PUSH1 0x20 ADD ADDRESS PUSH20 0xFFFFFFFFFFFFFFFFFFFFFFFFFFFFFFFFFFFFFFFF AND DUP2 MSTORE PUSH1 0x20 ADD TIMESTAMP DUP2 MSTORE PUSH1 0x20 ADD DUP7 DUP2 MSTORE PUSH1 0x20 ADD DUP5 DUP2 MSTORE PUSH1 0x20 ADD PUSH1 0x0 PUSH20 0xFFFFFFFFFFFFFFFFFFFFFFFFFFFFFFFFFFFFFFFF AND DUP2 MSTORE POP SWAP1 POP DUP7 PUSH20 0xFFFFFFFFFFFFFFFFFFFFFFFFFFFFFFFFFFFFFFFF AND PUSH4 0x414BF389 DUP3 PUSH1 0x40 MLOAD DUP3 PUSH4 0xFFFFFFFF AND PUSH1 0xE0 SHL DUP2 MSTORE PUSH1 0x4 ADD PUSH2 0x817 SWAP2 SWAP1 PUSH2 0x1634 JUMP JUMPDEST PUSH1 0x20 PUSH1 0x40 MLOAD DUP1 DUP4 SUB DUP2 PUSH1 0x0 DUP8 GAS CALL ISZERO DUP1 ISZERO PUSH2 0x836 JUMPI RETURNDATASIZE PUSH1 0x0 DUP1 RETURNDATACOPY RETURNDATASIZE PUSH1 0x0 REVERT JUMPDEST POP POP POP POP PUSH1 0x40 MLOAD RETURNDATASIZE PUSH1 0x1F NOT PUSH1 0x1F DUP3 ADD AND DUP3 ADD DUP1 PUSH1 0x40 MSTORE POP DUP2 ADD SWAP1 PUSH2 0x85A SWAP2 SWAP1 PUSH2 0x14B9 JUMP JUMPDEST POP POP POP POP POP POP POP POP JUMP JUMPDEST PUSH1 0x0 PUSH20 0xFFFFFFFFFFFFFFFFFFFFFFFFFFFFFFFFFFFFFFFF DUP3 AND SWAP1 POP SWAP2 SWAP1 POP JUMP JUMPDEST PUSH1 0x0 PUSH2 0x88F DUP3 PUSH2 0x864 JUMP JUMPDEST SWAP1 POP SWAP2 SWAP1 POP JUMP JUMPDEST PUSH2 0x89F DUP2 PUSH2 0x884 JUMP JUMPDEST DUP3 MSTORE POP POP JUMP JUMPDEST PUSH1 0x0 PUSH1 0x20 DUP3 ADD SWAP1 POP PUSH2 0x8BA PUSH1 0x0 DUP4 ADD DUP5 PUSH2 0x896 JUMP JUMPDEST SWAP3 SWAP2 POP POP JUMP JUMPDEST PUSH1 0x0 PUSH1 0x40 MLOAD SWAP1 POP SWAP1 JUMP JUMPDEST PUSH1 0x0 DUP1 REVERT JUMPDEST PUSH1 0x0 DUP1 REVERT JUMPDEST PUSH1 0x0 DUP1 REVERT JUMPDEST PUSH1 0x0 PUSH1 0x1F NOT PUSH1 0x1F DUP4 ADD AND SWAP1 POP SWAP2 SWAP1 POP JUMP JUMPDEST PUSH32 0x4E487B7100000000000000000000000000000000000000000000000000000000 PUSH1 0x0 MSTORE PUSH1 0x41 PUSH1 0x4 MSTORE PUSH1 0x24 PUSH1 0x0 REVERT JUMPDEST PUSH2 0x922 DUP3 PUSH2 0x8D9 JUMP JUMPDEST DUP2 ADD DUP2 DUP2 LT PUSH8 0xFFFFFFFFFFFFFFFF DUP3 GT OR ISZERO PUSH2 0x941 JUMPI PUSH2 0x940 PUSH2 0x8EA JUMP JUMPDEST JUMPDEST DUP1 PUSH1 0x40 MSTORE POP POP POP JUMP JUMPDEST PUSH1 0x0 PUSH2 0x954 PUSH2 0x8C0 JUMP JUMPDEST SWAP1 POP PUSH2 0x960 DUP3 DUP3 PUSH2 0x919 JUMP JUMPDEST SWAP2 SWAP1 POP JUMP JUMPDEST PUSH1 0x0 PUSH8 0xFFFFFFFFFFFFFFFF DUP3 GT ISZERO PUSH2 0x980 JUMPI PUSH2 0x97F PUSH2 0x8EA JUMP JUMPDEST JUMPDEST PUSH1 0x20 DUP3 MUL SWAP1 POP PUSH1 0x20 DUP2 ADD SWAP1 POP SWAP2 SWAP1 POP JUMP JUMPDEST PUSH1 0x0 DUP1 REVERT JUMPDEST PUSH2 0x99F DUP2 PUSH2 0x884 JUMP JUMPDEST DUP2 EQ PUSH2 0x9AA JUMPI PUSH1 0x0 DUP1 REVERT JUMPDEST POP JUMP JUMPDEST PUSH1 0x0 DUP2 CALLDATALOAD SWAP1 POP PUSH2 0x9BC DUP2 PUSH2 0x996 JUMP JUMPDEST SWAP3 SWAP2 POP POP JUMP JUMPDEST PUSH1 0x0 PUSH2 0x9D5 PUSH2 0x9D0 DUP5 PUSH2 0x965 JUMP JUMPDEST PUSH2 0x94A JUMP JUMPDEST SWAP1 POP DUP1 DUP4 DUP3 MSTORE PUSH1 0x20 DUP3 ADD SWAP1 POP PUSH1 0x20 DUP5 MUL DUP4 ADD DUP6 DUP2 GT ISZERO PUSH2 0x9F8 JUMPI PUSH2 0x9F7 PUSH2 0x991 JUMP JUMPDEST JUMPDEST DUP4 JUMPDEST DUP2 DUP2 LT ISZERO PUSH2 0xA21 JUMPI DUP1 PUSH2 0xA0D DUP9 DUP3 PUSH2 0x9AD JUMP JUMPDEST DUP5 MSTORE PUSH1 0x20 DUP5 ADD SWAP4 POP POP PUSH1 0x20 DUP2 ADD SWAP1 POP PUSH2 0x9FA JUMP JUMPDEST POP POP POP SWAP4 SWAP3 POP POP POP JUMP JUMPDEST PUSH1 0x0 DUP3 PUSH1 0x1F DUP4 ADD SLT PUSH2 0xA40 JUMPI PUSH2 0xA3F PUSH2 0x8D4 JUMP JUMPDEST JUMPDEST DUP2 CALLDATALOAD PUSH2 0xA50 DUP5 DUP3 PUSH1 0x20 DUP7 ADD PUSH2 0x9C2 JUMP JUMPDEST SWAP2 POP POP SWAP3 SWAP2 POP POP JUMP JUMPDEST PUSH1 0x0 PUSH3 0xFFFFFF DUP3 AND SWAP1 POP SWAP2 SWAP1 POP JUMP JUMPDEST PUSH2 0xA71 DUP2 PUSH2 0xA59 JUMP JUMPDEST DUP2 EQ PUSH2 0xA7C JUMPI PUSH1 0x0 DUP1 REVERT JUMPDEST POP JUMP JUMPDEST PUSH1 0x0 DUP2 CALLDATALOAD SWAP1 POP PUSH2 0xA8E DUP2 PUSH2 0xA68 JUMP JUMPDEST SWAP3 SWAP2 POP POP JUMP JUMPDEST PUSH1 0x0 DUP2 SWAP1 POP SWAP2 SWAP1 POP JUMP JUMPDEST PUSH2 0xAA7 DUP2 PUSH2 0xA94 JUMP JUMPDEST DUP2 EQ PUSH2 0xAB2 JUMPI PUSH1 0x0 DUP1 REVERT JUMPDEST POP JUMP JUMPDEST PUSH1 0x0 DUP2 CALLDATALOAD SWAP1 POP PUSH2 0xAC4 DUP2 PUSH2 0xA9E JUMP JUMPDEST SWAP3 SWAP2 POP POP JUMP JUMPDEST PUSH1 0x0 DUP1 PUSH1 0x0 DUP1 PUSH1 0x80 DUP6 DUP8 SUB SLT ISZERO PUSH2 0xAE4 JUMPI PUSH2 0xAE3 PUSH2 0x8CA JUMP JUMPDEST JUMPDEST PUSH1 0x0 DUP6 ADD CALLDATALOAD PUSH8 0xFFFFFFFFFFFFFFFF DUP2 GT ISZERO PUSH2 0xB02 JUMPI PUSH2 0xB01 PUSH2 0x8CF JUMP JUMPDEST JUMPDEST PUSH2 0xB0E DUP8 DUP3 DUP9 ADD PUSH2 0xA2B JUMP JUMPDEST SWAP5 POP POP PUSH1 0x20 DUP6 ADD CALLDATALOAD PUSH8 0xFFFFFFFFFFFFFFFF DUP2 GT ISZERO PUSH2 0xB2F JUMPI PUSH2 0xB2E PUSH2 0x8CF JUMP JUMPDEST JUMPDEST PUSH2 0xB3B DUP8 DUP3 DUP9 ADD PUSH2 0xA2B JUMP JUMPDEST SWAP4 POP POP PUSH1 0x40 PUSH2 0xB4C DUP8 DUP3 DUP9 ADD PUSH2 0xA7F JUMP JUMPDEST SWAP3 POP POP PUSH1 0x60 PUSH2 0xB5D DUP8 DUP3 DUP9 ADD PUSH2 0xAB5 JUMP JUMPDEST SWAP2 POP POP SWAP3 SWAP6 SWAP2 SWAP5 POP SWAP3 POP JUMP JUMPDEST PUSH1 0x0 PUSH8 0xFFFFFFFFFFFFFFFF DUP3 GT ISZERO PUSH2 0xB84 JUMPI PUSH2 0xB83 PUSH2 0x8EA JUMP JUMPDEST JUMPDEST PUSH1 0x20 DUP3 MUL SWAP1 POP PUSH1 0x20 DUP2 ADD SWAP1 POP SWAP2 SWAP1 POP JUMP JUMPDEST PUSH1 0x0 PUSH2 0xBA0 DUP3 PUSH2 0x884 JUMP JUMPDEST SWAP1 POP SWAP2 SWAP1 POP JUMP JUMPDEST PUSH2 0xBB0 DUP2 PUSH2 0xB95 JUMP JUMPDEST DUP2 EQ PUSH2 0xBBB JUMPI PUSH1 0x0 DUP1 REVERT JUMPDEST POP JUMP JUMPDEST PUSH1 0x0 DUP2 CALLDATALOAD SWAP1 POP PUSH2 0xBCD DUP2 PUSH2 0xBA7 JUMP JUMPDEST SWAP3 SWAP2 POP POP JUMP JUMPDEST PUSH1 0x0 PUSH2 0xBE6 PUSH2 0xBE1 DUP5 PUSH2 0xB69 JUMP JUMPDEST PUSH2 0x94A JUMP JUMPDEST SWAP1 POP DUP1 DUP4 DUP3 MSTORE PUSH1 0x20 DUP3 ADD SWAP1 POP PUSH1 0x20 DUP5 MUL DUP4 ADD DUP6 DUP2 GT ISZERO PUSH2 0xC09 JUMPI PUSH2 0xC08 PUSH2 0x991 JUMP JUMPDEST JUMPDEST DUP4 JUMPDEST DUP2 DUP2 LT ISZERO PUSH2 0xC32 JUMPI DUP1 PUSH2 0xC1E DUP9 DUP3 PUSH2 0xBBE JUMP JUMPDEST DUP5 MSTORE PUSH1 0x20 DUP5 ADD SWAP4 POP POP PUSH1 0x20 DUP2 ADD SWAP1 POP PUSH2 0xC0B JUMP JUMPDEST POP POP POP SWAP4 SWAP3 POP POP POP JUMP JUMPDEST PUSH1 0x0 DUP3 PUSH1 0x1F DUP4 ADD SLT PUSH2 0xC51 JUMPI PUSH2 0xC50 PUSH2 0x8D4 JUMP JUMPDEST JUMPDEST DUP2 CALLDATALOAD PUSH2 0xC61 DUP5 DUP3 PUSH1 0x20 DUP7 ADD PUSH2 0xBD3 JUMP JUMPDEST SWAP2 POP POP SWAP3 SWAP2 POP POP JUMP JUMPDEST PUSH1 0x0 PUSH8 0xFFFFFFFFFFFFFFFF DUP3 GT ISZERO PUSH2 0xC85 JUMPI PUSH2 0xC84 PUSH2 0x8EA JUMP JUMPDEST JUMPDEST PUSH1 0x20 DUP3 MUL SWAP1 POP PUSH1 0x20 DUP2 ADD SWAP1 POP SWAP2 SWAP1 POP JUMP JUMPDEST PUSH1 0x0 PUSH2 0xCA9 PUSH2 0xCA4 DUP5 PUSH2 0xC6A JUMP JUMPDEST PUSH2 0x94A JUMP JUMPDEST SWAP1 POP DUP1 DUP4 DUP3 MSTORE PUSH1 0x20 DUP3 ADD SWAP1 POP PUSH1 0x20 DUP5 MUL DUP4 ADD DUP6 DUP2 GT ISZERO PUSH2 0xCCC JUMPI PUSH2 0xCCB PUSH2 0x991 JUMP JUMPDEST JUMPDEST DUP4 JUMPDEST DUP2 DUP2 LT ISZERO PUSH2 0xCF5 JUMPI DUP1 PUSH2 0xCE1 DUP9 DUP3 PUSH2 0xAB5 JUMP JUMPDEST DUP5 MSTORE PUSH1 0x20 DUP5 ADD SWAP4 POP POP PUSH1 0x20 DUP2 ADD SWAP1 POP PUSH2 0xCCE JUMP JUMPDEST POP POP POP SWAP4 SWAP3 POP POP POP JUMP JUMPDEST PUSH1 0x0 DUP3 PUSH1 0x1F DUP4 ADD SLT PUSH2 0xD14 JUMPI PUSH2 0xD13 PUSH2 0x8D4 JUMP JUMPDEST JUMPDEST DUP2 CALLDATALOAD PUSH2 0xD24 DUP5 DUP3 PUSH1 0x20 DUP7 ADD PUSH2 0xC96 JUMP JUMPDEST SWAP2 POP POP SWAP3 SWAP2 POP POP JUMP JUMPDEST PUSH1 0x0 DUP1 REVERT JUMPDEST PUSH1 0x0 PUSH8 0xFFFFFFFFFFFFFFFF DUP3 GT ISZERO PUSH2 0xD4D JUMPI PUSH2 0xD4C PUSH2 0x8EA JUMP JUMPDEST JUMPDEST PUSH2 0xD56 DUP3 PUSH2 0x8D9 JUMP JUMPDEST SWAP1 POP PUSH1 0x20 DUP2 ADD SWAP1 POP SWAP2 SWAP1 POP JUMP JUMPDEST DUP3 DUP2 DUP4 CALLDATACOPY PUSH1 0x0 DUP4 DUP4 ADD MSTORE POP POP POP JUMP JUMPDEST PUSH1 0x0 PUSH2 0xD85 PUSH2 0xD80 DUP5 PUSH2 0xD32 JUMP JUMPDEST PUSH2 0x94A JUMP JUMPDEST SWAP1 POP DUP3 DUP2 MSTORE PUSH1 0x20 DUP2 ADD DUP5 DUP5 DUP5 ADD GT ISZERO PUSH2 0xDA1 JUMPI PUSH2 0xDA0 PUSH2 0xD2D JUMP JUMPDEST JUMPDEST PUSH2 0xDAC DUP5 DUP3 DUP6 PUSH2 0xD63 JUMP JUMPDEST POP SWAP4 SWAP3 POP POP POP JUMP JUMPDEST PUSH1 0x0 DUP3 PUSH1 0x1F DUP4 ADD SLT PUSH2 0xDC9 JUMPI PUSH2 0xDC8 PUSH2 0x8D4 JUMP JUMPDEST JUMPDEST DUP2 CALLDATALOAD PUSH2 0xDD9 DUP5 DUP3 PUSH1 0x20 DUP7 ADD PUSH2 0xD72 JUMP JUMPDEST SWAP2 POP POP SWAP3 SWAP2 POP POP JUMP JUMPDEST PUSH1 0x0 DUP1 PUSH1 0x0 DUP1 PUSH1 0x80 DUP6 DUP8 SUB SLT ISZERO PUSH2 0xDFC JUMPI PUSH2 0xDFB PUSH2 0x8CA JUMP JUMPDEST JUMPDEST PUSH1 0x0 DUP6 ADD CALLDATALOAD PUSH8 0xFFFFFFFFFFFFFFFF DUP2 GT ISZERO PUSH2 0xE1A JUMPI PUSH2 0xE19 PUSH2 0x8CF JUMP JUMPDEST JUMPDEST PUSH2 0xE26 DUP8 DUP3 DUP9 ADD PUSH2 0xC3C JUMP JUMPDEST SWAP5 POP POP PUSH1 0x20 DUP6 ADD CALLDATALOAD PUSH8 0xFFFFFFFFFFFFFFFF DUP2 GT ISZERO PUSH2 0xE47 JUMPI PUSH2 0xE46 PUSH2 0x8CF JUMP JUMPDEST JUMPDEST PUSH2 0xE53 DUP8 DUP3 DUP9 ADD PUSH2 0xCFF JUMP JUMPDEST SWAP4 POP POP PUSH1 0x40 DUP6 ADD CALLDATALOAD PUSH8 0xFFFFFFFFFFFFFFFF DUP2 GT ISZERO PUSH2 0xE74 JUMPI PUSH2 0xE73 PUSH2 0x8CF JUMP JUMPDEST JUMPDEST PUSH2 0xE80 DUP8 DUP3 DUP9 ADD PUSH2 0xCFF JUMP JUMPDEST SWAP3 POP POP PUSH1 0x60 DUP6 ADD CALLDATALOAD PUSH8 0xFFFFFFFFFFFFFFFF DUP2 GT ISZERO PUSH2 0xEA1 JUMPI PUSH2 0xEA0 PUSH2 0x8CF JUMP JUMPDEST JUMPDEST PUSH2 0xEAD DUP8 DUP3 DUP9 ADD PUSH2 0xDB4 JUMP JUMPDEST SWAP2 POP POP SWAP3 SWAP6 SWAP2 SWAP5 POP SWAP3 POP JUMP JUMPDEST PUSH1 0x0 DUP2 MLOAD SWAP1 POP SWAP2 SWAP1 POP JUMP JUMPDEST PUSH1 0x0 DUP3 DUP3 MSTORE PUSH1 0x20 DUP3 ADD SWAP1 POP SWAP3 SWAP2 POP POP JUMP JUMPDEST PUSH1 0x0 DUP2 SWAP1 POP PUSH1 0x20 DUP3 ADD SWAP1 POP SWAP2 SWAP1 POP JUMP JUMPDEST PUSH2 0xEEE DUP2 PUSH2 0x884 JUMP JUMPDEST DUP3 MSTORE POP POP JUMP JUMPDEST PUSH1 0x0 PUSH2 0xF00 DUP4 DUP4 PUSH2 0xEE5 JUMP JUMPDEST PUSH1 0x20 DUP4 ADD SWAP1 POP SWAP3 SWAP2 POP POP JUMP JUMPDEST PUSH1 0x0 PUSH1 0x20 DUP3 ADD SWAP1 POP SWAP2 SWAP1 POP JUMP JUMPDEST PUSH1 0x0 PUSH2 0xF24 DUP3 PUSH2 0xEB9 JUMP JUMPDEST PUSH2 0xF2E DUP2 DUP6 PUSH2 0xEC4 JUMP JUMPDEST SWAP4 POP PUSH2 0xF39 DUP4 PUSH2 0xED5 JUMP JUMPDEST DUP1 PUSH1 0x0 JUMPDEST DUP4 DUP2 LT ISZERO PUSH2 0xF6A JUMPI DUP2 MLOAD PUSH2 0xF51 DUP9 DUP3 PUSH2 0xEF4 JUMP JUMPDEST SWAP8 POP PUSH2 0xF5C DUP4 PUSH2 0xF0C JUMP JUMPDEST SWAP3 POP POP PUSH1 0x1 DUP2 ADD SWAP1 POP PUSH2 0xF3D JUMP JUMPDEST POP DUP6 SWAP4 POP POP POP POP SWAP3 SWAP2 POP POP JUMP JUMPDEST PUSH2 0xF80 DUP2 PUSH2 0xA59 JUMP JUMPDEST DUP3 MSTORE POP POP JUMP JUMPDEST PUSH1 0x0 PUSH1 0x60 DUP4 ADD PUSH1 0x0 DUP4 ADD MLOAD DUP5 DUP3 SUB PUSH1 0x0 DUP7 ADD MSTORE PUSH2 0xFA3 DUP3 DUP3 PUSH2 0xF19 JUMP JUMPDEST SWAP2 POP POP PUSH1 0x20 DUP4 ADD MLOAD DUP5 DUP3 SUB PUSH1 0x20 DUP7 ADD MSTORE PUSH2 0xFBD DUP3 DUP3 PUSH2 0xF19 JUMP JUMPDEST SWAP2 POP POP PUSH1 0x40 DUP4 ADD MLOAD PUSH2 0xFD2 PUSH1 0x40 DUP7 ADD DUP3 PUSH2 0xF77 JUMP JUMPDEST POP DUP1 SWAP2 POP POP SWAP3 SWAP2 POP POP JUMP JUMPDEST PUSH1 0x0 PUSH1 0x20 DUP3 ADD SWAP1 POP DUP2 DUP2 SUB PUSH1 0x0 DUP4 ADD MSTORE PUSH2 0xFF7 DUP2 DUP5 PUSH2 0xF86 JUMP JUMPDEST SWAP1 POP SWAP3 SWAP2 POP POP JUMP JUMPDEST PUSH32 0x4E487B7100000000000000000000000000000000000000000000000000000000 PUSH1 0x0 MSTORE PUSH1 0x32 PUSH1 0x4 MSTORE PUSH1 0x24 PUSH1 0x0 REVERT JUMPDEST PUSH1 0x0 DUP2 SWAP1 POP SWAP2 SWAP1 POP JUMP JUMPDEST PUSH1 0x0 PUSH2 0x1053 PUSH2 0x104E PUSH2 0x1049 DUP5 PUSH2 0x864 JUMP JUMPDEST PUSH2 0x102E JUMP JUMPDEST PUSH2 0x864 JUMP JUMPDEST SWAP1 POP SWAP2 SWAP1 POP JUMP JUMPDEST PUSH1 0x0 PUSH2 0x1065 DUP3 PUSH2 0x1038 JUMP JUMPDEST SWAP1 POP SWAP2 SWAP1 POP JUMP JUMPDEST PUSH1 0x0 PUSH2 0x1077 DUP3 PUSH2 0x105A JUMP JUMPDEST SWAP1 POP SWAP2 SWAP1 POP JUMP JUMPDEST PUSH2 0x1087 DUP2 PUSH2 0x106C JUMP JUMPDEST DUP3 MSTORE POP POP JUMP JUMPDEST PUSH1 0x0 DUP2 MLOAD SWAP1 POP SWAP2 SWAP1 POP JUMP JUMPDEST PUSH1 0x0 DUP3 DUP3 MSTORE PUSH1 0x20 DUP3 ADD SWAP1 POP SWAP3 SWAP2 POP POP JUMP JUMPDEST PUSH1 0x0 DUP2 SWAP1 POP PUSH1 0x20 DUP3 ADD SWAP1 POP SWAP2 SWAP1 POP JUMP JUMPDEST PUSH1 0x0 PUSH2 0x10C4 DUP3 PUSH2 0x105A JUMP JUMPDEST SWAP1 POP SWAP2 SWAP1 POP JUMP JUMPDEST PUSH2 0x10D4 DUP2 PUSH2 0x10B9 JUMP JUMPDEST DUP3 MSTORE POP POP JUMP JUMPDEST PUSH1 0x0 PUSH2 0x10E6 DUP4 DUP4 PUSH2 0x10CB JUMP JUMPDEST PUSH1 0x20 DUP4 ADD SWAP1 POP SWAP3 SWAP2 POP POP JUMP JUMPDEST PUSH1 0x0 PUSH1 0x20 DUP3 ADD SWAP1 POP SWAP2 SWAP1 POP JUMP JUMPDEST PUSH1 0x0 PUSH2 0x110A DUP3 PUSH2 0x108D JUMP JUMPDEST PUSH2 0x1114 DUP2 DUP6 PUSH2 0x1098 JUMP JUMPDEST SWAP4 POP PUSH2 0x111F DUP4 PUSH2 0x10A9 JUMP JUMPDEST DUP1 PUSH1 0x0 JUMPDEST DUP4 DUP2 LT ISZERO PUSH2 0x1150 JUMPI DUP2 MLOAD PUSH2 0x1137 DUP9 DUP3 PUSH2 0x10DA JUMP JUMPDEST SWAP8 POP PUSH2 0x1142 DUP4 PUSH2 0x10F2 JUMP JUMPDEST SWAP3 POP POP PUSH1 0x1 DUP2 ADD SWAP1 POP PUSH2 0x1123 JUMP JUMPDEST POP DUP6 SWAP4 POP POP POP POP SWAP3 SWAP2 POP POP JUMP JUMPDEST PUSH1 0x0 DUP2 MLOAD SWAP1 POP SWAP2 SWAP1 POP JUMP JUMPDEST PUSH1 0x0 DUP3 DUP3 MSTORE PUSH1 0x20 DUP3 ADD SWAP1 POP SWAP3 SWAP2 POP POP JUMP JUMPDEST PUSH1 0x0 DUP2 SWAP1 POP PUSH1 0x20 DUP3 ADD SWAP1 POP SWAP2 SWAP1 POP JUMP JUMPDEST PUSH2 0x1192 DUP2 PUSH2 0xA94 JUMP JUMPDEST DUP3 MSTORE POP POP JUMP JUMPDEST PUSH1 0x0 PUSH2 0x11A4 DUP4 DUP4 PUSH2 0x1189 JUMP JUMPDEST PUSH1 0x20 DUP4 ADD SWAP1 POP SWAP3 SWAP2 POP POP JUMP JUMPDEST PUSH1 0x0 PUSH1 0x20 DUP3 ADD SWAP1 POP SWAP2 SWAP1 POP JUMP JUMPDEST PUSH1 0x0 PUSH2 0x11C8 DUP3 PUSH2 0x115D JUMP JUMPDEST PUSH2 0x11D2 DUP2 DUP6 PUSH2 0x1168 JUMP JUMPDEST SWAP4 POP PUSH2 0x11DD DUP4 PUSH2 0x1179 JUMP JUMPDEST DUP1 PUSH1 0x0 JUMPDEST DUP4 DUP2 LT ISZERO PUSH2 0x120E JUMPI DUP2 MLOAD PUSH2 0x11F5 DUP9 DUP3 PUSH2 0x1198 JUMP JUMPDEST SWAP8 POP PUSH2 0x1200 DUP4 PUSH2 0x11B0 JUMP JUMPDEST SWAP3 POP POP PUSH1 0x1 DUP2 ADD SWAP1 POP PUSH2 0x11E1 JUMP JUMPDEST POP DUP6 SWAP4 POP POP POP POP SWAP3 SWAP2 POP POP JUMP JUMPDEST PUSH1 0x0 DUP2 MLOAD SWAP1 POP SWAP2 SWAP1 POP JUMP JUMPDEST PUSH1 0x0 DUP3 DUP3 MSTORE PUSH1 0x20 DUP3 ADD SWAP1 POP SWAP3 SWAP2 POP POP JUMP JUMPDEST PUSH1 0x0 JUMPDEST DUP4 DUP2 LT ISZERO PUSH2 0x1255 JUMPI DUP1 DUP3 ADD MLOAD DUP2 DUP5 ADD MSTORE PUSH1 0x20 DUP2 ADD SWAP1 POP PUSH2 0x123A JUMP JUMPDEST PUSH1 0x0 DUP5 DUP5 ADD MSTORE POP POP POP POP JUMP JUMPDEST PUSH1 0x0 PUSH2 0x126C DUP3 PUSH2 0x121B JUMP JUMPDEST PUSH2 0x1276 DUP2 DUP6 PUSH2 0x1226 JUMP JUMPDEST SWAP4 POP PUSH2 0x1286 DUP2 DUP6 PUSH1 0x20 DUP7 ADD PUSH2 0x1237 JUMP JUMPDEST PUSH2 0x128F DUP2 PUSH2 0x8D9 JUMP JUMPDEST DUP5 ADD SWAP2 POP POP SWAP3 SWAP2 POP POP JUMP JUMPDEST PUSH1 0x0 PUSH1 0x80 DUP3 ADD SWAP1 POP PUSH2 0x12AF PUSH1 0x0 DUP4 ADD DUP8 PUSH2 0x107E JUMP JUMPDEST DUP2 DUP2 SUB PUSH1 0x20 DUP4 ADD MSTORE PUSH2 0x12C1 DUP2 DUP7 PUSH2 0x10FF JUMP JUMPDEST SWAP1 POP DUP2 DUP2 SUB PUSH1 0x40 DUP4 ADD MSTORE PUSH2 0x12D5 DUP2 DUP6 PUSH2 0x11BD JUMP JUMPDEST SWAP1 POP DUP2 DUP2 SUB PUSH1 0x60 DUP4 ADD MSTORE PUSH2 0x12E9 DUP2 DUP5 PUSH2 0x1261 JUMP JUMPDEST SWAP1 POP SWAP6 SWAP5 POP POP POP POP POP JUMP JUMPDEST PUSH1 0x0 DUP1 REVERT JUMPDEST PUSH1 0x0 DUP1 REVERT JUMPDEST PUSH1 0x0 DUP2 MLOAD SWAP1 POP PUSH2 0x130D DUP2 PUSH2 0x996 JUMP JUMPDEST SWAP3 SWAP2 POP POP JUMP JUMPDEST PUSH1 0x0 PUSH2 0x1326 PUSH2 0x1321 DUP5 PUSH2 0x965 JUMP JUMPDEST PUSH2 0x94A JUMP JUMPDEST SWAP1 POP DUP1 DUP4 DUP3 MSTORE PUSH1 0x20 DUP3 ADD SWAP1 POP PUSH1 0x20 DUP5 MUL DUP4 ADD DUP6 DUP2 GT ISZERO PUSH2 0x1349 JUMPI PUSH2 0x1348 PUSH2 0x991 JUMP JUMPDEST JUMPDEST DUP4 JUMPDEST DUP2 DUP2 LT ISZERO PUSH2 0x1372 JUMPI DUP1 PUSH2 0x135E DUP9 DUP3 PUSH2 0x12FE JUMP JUMPDEST DUP5 MSTORE PUSH1 0x20 DUP5 ADD SWAP4 POP POP PUSH1 0x20 DUP2 ADD SWAP1 POP PUSH2 0x134B JUMP JUMPDEST POP POP POP SWAP4 SWAP3 POP POP POP JUMP JUMPDEST PUSH1 0x0 DUP3 PUSH1 0x1F DUP4 ADD SLT PUSH2 0x1391 JUMPI PUSH2 0x1390 PUSH2 0x8D4 JUMP JUMPDEST JUMPDEST DUP2 MLOAD PUSH2 0x13A1 DUP5 DUP3 PUSH1 0x20 DUP7 ADD PUSH2 0x1313 JUMP JUMPDEST SWAP2 POP POP SWAP3 SWAP2 POP POP JUMP JUMPDEST PUSH1 0x0 DUP2 MLOAD SWAP1 POP PUSH2 0x13B9 DUP2 PUSH2 0xA68 JUMP JUMPDEST SWAP3 SWAP2 POP POP JUMP JUMPDEST PUSH1 0x0 PUSH1 0x60 DUP3 DUP5 SUB SLT ISZERO PUSH2 0x13D5 JUMPI PUSH2 0x13D4 PUSH2 0x12F4 JUMP JUMPDEST JUMPDEST PUSH2 0x13DF PUSH1 0x60 PUSH2 0x94A JUMP JUMPDEST SWAP1 POP PUSH1 0x0 DUP3 ADD MLOAD PUSH8 0xFFFFFFFFFFFFFFFF DUP2 GT ISZERO PUSH2 0x13FF JUMPI PUSH2 0x13FE PUSH2 0x12F9 JUMP JUMPDEST JUMPDEST PUSH2 0x140B DUP5 DUP3 DUP6 ADD PUSH2 0x137C JUMP JUMPDEST PUSH1 0x0 DUP4 ADD MSTORE POP PUSH1 0x20 DUP3 ADD MLOAD PUSH8 0xFFFFFFFFFFFFFFFF DUP2 GT ISZERO PUSH2 0x142F JUMPI PUSH2 0x142E PUSH2 0x12F9 JUMP JUMPDEST JUMPDEST PUSH2 0x143B DUP5 DUP3 DUP6 ADD PUSH2 0x137C JUMP JUMPDEST PUSH1 0x20 DUP4 ADD MSTORE POP PUSH1 0x40 PUSH2 0x144F DUP5 DUP3 DUP6 ADD PUSH2 0x13AA JUMP JUMPDEST PUSH1 0x40 DUP4 ADD MSTORE POP SWAP3 SWAP2 POP POP JUMP JUMPDEST PUSH1 0x0 PUSH1 0x20 DUP3 DUP5 SUB SLT ISZERO PUSH2 0x1471 JUMPI PUSH2 0x1470 PUSH2 0x8CA JUMP JUMPDEST JUMPDEST PUSH1 0x0 DUP3 ADD MLOAD PUSH8 0xFFFFFFFFFFFFFFFF DUP2 GT ISZERO PUSH2 0x148F JUMPI PUSH2 0x148E PUSH2 0x8CF JUMP JUMPDEST JUMPDEST PUSH2 0x149B DUP5 DUP3 DUP6 ADD PUSH2 0x13BF JUMP JUMPDEST SWAP2 POP POP SWAP3 SWAP2 POP POP JUMP JUMPDEST PUSH1 0x0 DUP2 MLOAD SWAP1 POP PUSH2 0x14B3 DUP2 PUSH2 0xA9E JUMP JUMPDEST SWAP3 SWAP2 POP POP JUMP JUMPDEST PUSH1 0x0 PUSH1 0x20 DUP3 DUP5 SUB SLT ISZERO PUSH2 0x14CF JUMPI PUSH2 0x14CE PUSH2 0x8CA JUMP JUMPDEST JUMPDEST PUSH1 0x0 PUSH2 0x14DD DUP5 DUP3 DUP6 ADD PUSH2 0x14A4 JUMP JUMPDEST SWAP2 POP POP SWAP3 SWAP2 POP POP JUMP JUMPDEST PUSH2 0x14EF DUP2 PUSH2 0xA94 JUMP JUMPDEST DUP3 MSTORE POP POP JUMP JUMPDEST PUSH1 0x0 PUSH1 0x40 DUP3 ADD SWAP1 POP PUSH2 0x150A PUSH1 0x0 DUP4 ADD DUP6 PUSH2 0x896 JUMP JUMPDEST PUSH2 0x1517 PUSH1 0x20 DUP4 ADD DUP5 PUSH2 0x14E6 JUMP JUMPDEST SWAP4 SWAP3 POP POP POP JUMP JUMPDEST PUSH1 0x0 DUP2 ISZERO ISZERO SWAP1 POP SWAP2 SWAP1 POP JUMP JUMPDEST PUSH2 0x1533 DUP2 PUSH2 0x151E JUMP JUMPDEST DUP2 EQ PUSH2 0x153E JUMPI PUSH1 0x0 DUP1 REVERT JUMPDEST POP JUMP JUMPDEST PUSH1 0x0 DUP2 MLOAD SWAP1 POP PUSH2 0x1550 DUP2 PUSH2 0x152A JUMP JUMPDEST SWAP3 SWAP2 POP POP JUMP JUMPDEST PUSH1 0x0 PUSH1 0x20 DUP3 DUP5 SUB SLT ISZERO PUSH2 0x156C JUMPI PUSH2 0x156B PUSH2 0x8CA JUMP JUMPDEST JUMPDEST PUSH1 0x0 PUSH2 0x157A DUP5 DUP3 DUP6 ADD PUSH2 0x1541 JUMP JUMPDEST SWAP2 POP POP SWAP3 SWAP2 POP POP JUMP JUMPDEST PUSH2 0x158C DUP2 PUSH2 0x864 JUMP JUMPDEST DUP3 MSTORE POP POP JUMP JUMPDEST PUSH2 0x100 DUP3 ADD PUSH1 0x0 DUP3 ADD MLOAD PUSH2 0x15A9 PUSH1 0x0 DUP6 ADD DUP3 PUSH2 0xEE5 JUMP JUMPDEST POP PUSH1 0x20 DUP3 ADD MLOAD PUSH2 0x15BC PUSH1 0x20 DUP6 ADD DUP3 PUSH2 0xEE5 JUMP JUMPDEST POP PUSH1 0x40 DUP3 ADD MLOAD PUSH2 0x15CF PUSH1 0x40 DUP6 ADD DUP3 PUSH2 0xF77 JUMP JUMPDEST POP PUSH1 0x60 DUP3 ADD MLOAD PUSH2 0x15E2 PUSH1 0x60 DUP6 ADD DUP3 PUSH2 0xEE5 JUMP JUMPDEST POP PUSH1 0x80 DUP3 ADD MLOAD PUSH2 0x15F5 PUSH1 0x80 DUP6 ADD DUP3 PUSH2 0x1189 JUMP JUMPDEST POP PUSH1 0xA0 DUP3 ADD MLOAD PUSH2 0x1608 PUSH1 0xA0 DUP6 ADD DUP3 PUSH2 0x1189 JUMP JUMPDEST POP PUSH1 0xC0 DUP3 ADD MLOAD PUSH2 0x161B PUSH1 0xC0 DUP6 ADD DUP3 PUSH2 0x1189 JUMP JUMPDEST POP PUSH1 0xE0 DUP3 ADD MLOAD PUSH2 0x162E PUSH1 0xE0 DUP6 ADD DUP3 PUSH2 0x1583 JUMP JUMPDEST POP POP POP POP JUMP JUMPDEST PUSH1 0x0 PUSH2 0x100 DUP3 ADD SWAP1 POP PUSH2 0x164A PUSH1 0x0 DUP4 ADD DUP5 PUSH2 0x1592 JUMP JUMPDEST SWAP3 SWAP2 POP POP JUMP INVALID LOG2 PUSH5 0x6970667358 0x22 SLT KECCAK256 PUSH23 0xF9CB985979D6A5248F6CC0D7D6030DC157D37D260A2EF7 SWAP1 0xD 0xD9 0x23 0x22 NUMBER DUP4 0x25 PUSH5 0x736F6C6343 STOP ADDMOD SHR STOP CALLER "
        },
        "methodIdentifiers": {
          "executeTrade(address[],address[],uint24,uint256)": "b4b9c57b",
          "owner()": "8da5cb5b",
          "receiveFlashLoan(address[],uint256[],uint256[],bytes)": "f04f2707"
        }
      }
    }
  }
}